:060000000A128A110E280D
:10000800FE00030EF0000408F1000A08F2000A12CC
:100018008A15862C0A128A111128831603130A12CC
:100028008A15D1210A128A11DA000A128A15D221F8
:100038000A128A11DB000A128A15D3210A128A11C0
:10004800DC000A128A11FE270A128A11F9008317A6
:1000580090308400D0300A128A15DB210A128A11E6
:100068008313A0308400C0300A128A15DB210A12DB
:100078008A11633084006E300A128A15DB210A1255
:100088008A11F701F80183010A128A114B280A1212
:100098008A1558220A128A110A128A1536220A1259
:1000A8008A110A128A1517220A128A110230831637
:1000B8000313D9000430D800B930D700D70B622811
:1000C800D80B6228D90B62286928831603130711F5
:1000D8008312031307150A128A15A1250A128A1119
:1000E8004E300A128A15CA260A128A118316031775
:1000F800E201E3010A128A1546220A128A118312C2
:100108000313A401A40A01300A128A15E9230A126A
:100118008A11013083120313A3008030A4000A124D
:100128008A1570230A128A118316031332080319D9
:100138009E289F28D2283303031DA328A428BC285F
:10014800B83083120313A6000A128A118E270A12E6
:100158008A11153083160313D9004B30D800BD30EF
:10016800D700D70BB528D80BB528D90BB528BC288C
:100178004130831603133806031DC328C428C72833
:100188000130B400D12842303806031DCC28CD28D0
:10019800D1280130B5000130DB00B2013403031D62
:1001A800D628D728E1286830F5000A128A15832254
:1001B8000A128A1183160313B4013603031DE528B6
:1001C800E62863295C03031DEA28EB286329B501A7
:1001D800DE3083120313A000E430A1000A128A1152
:1001E80055240A128A11831603176708831203130A
:1001F800E20083160317660883120313E1008316CF
:100208000317650883120313E000831603176408B5
:1002180083120313DF000A128A11EE220A128A11CE
:10022800643083160317E2070318E30A0030E30774
:1002380003306302E83003196202031C24292529CC
:100248006329E201E3010A128A1503260A128A11B8
:1002580083120313250883160317DD008312031383
:10026800240883160317DC000A128A1546220A128C
:100278008A1183120313A401A40A01300A128A15F1
:10028800E9230A128A11523083120313A300803023
:10029800A4000A128A1570230A128A1183160317FA
:1002A8005D0883120313A900831603175C088312E1
:1002B8000313A8000A128A1135250A128A11831617
:1002C80003133503031D69296A29D12AF401F501AD
:1002D800F60100300A128A15C4240A128A11343031
:1002E80083160313D800F130D700D70B7929D80B20
:1002F8007929F401F501F601F60A00300A128A1587
:10030800C4240A128A11343083160313D800F1303A
:10031800D700D70B8D29D80B8D29F401F501F50AE3
:10032800F60100300A128A15C4240A128A117508C7
:1003380083160317D9007408D800343083160313C2
:10034800D800F130D700D70BA729D80BA729F4017B
:10035800F501F50AF601F60A00300A128A15C424D6
:100368000A128A11750883160317DB007408DA006D
:10037800343083160313D800F130D700D70BC229C5
:10038800D80BC229F401F40AF501F60100300A126B
:100398008A15C4240A128A11343083160313D8002C
:1003A800F130D700D70BD629D80BD629F401F40A97
:1003B800F501F60101300A128A15C4240A128A11BD
:1003C800750883160317D1007408D00034308316DB
:1003D8000313D800F130D700D70BF029D80BF02938
:1003E800F401F501F50AF60101300A128A15C42450
:1003F8000A128A11750883160317D3007408D200ED
:10040800343083160313D800F130D700D70B0A2AEB
:10041800D80B0A2AF401F501F601F60A01300A128E
:100428008A15C4240A128A11750883160317D50081
:100438007408D400343083160313D800F130D70081
:10044800D70B242AD80B242AF401F501F50AF60162
:10045800F60A01300A128A15C4240A128A1175088C
:1004680083160317D7007408D60034308316031395
:10047800D800F130D700D70B3F2AD80B3F2A0330DA
:1004880083160313D9000830D8007630D700D70B6D
:100498004B2AD80B4B2AD90B4B2A00000330831662
:1004A80003175902E93003195802031C5C2A5D2A14
:1004B800932A01305B02F53003195A02031C652A9E
:1004C800662A932A83120313071583160313DB0185
:1004D8000130B6006530F5000A128A1583220A1227
:1004E8008A110A128A1546220A128A1183120313E4
:1004F800A401A40A01300A128A15E9230A128A11F2
:10050800243083120313A3008030A4000A128A1532
:1005180070230A128A1183160313DB01D12A83126E
:100528000313071183160313B6010130DB005F3094
:10053800F5000A128A1583220A128A110A128A15EC
:1005480046220A128A1183120313A401A40A013055
:100558000A128A15E9230A128A113E3083120313FC
:10056800A3008030A4000A128A1570230A128A1187
:1005780083120313A401A40A02300A128A15E9237C
:100588000A128A11333083120313A3008030A400A7
:100598000A128A1570230A128A110230831603136D
:1005A800D9000430D800B930D700D70BD92AD80BD6
:1005B800D92AD90BD92AE02A831603132C08643EBA
:1005C800AC002D080318013E003EAD0098280A1221
:1005D8008A110E28831203136208031D012B610878
:1005E800031D012B0B306002031DFE2AB8305F0289
:1005F800031DFE2A0318012B022B1D2B8312031344
:10060800A401A40A02300A128A15E9230A128A11DF
:10061800143083120313A3008030A4000A128A1531
:1006280070230A128A11013083160313DA00B70106
:10063800542C831603133108C00001300310C00D79
:10064800FF3E031D222B0310400DB03E8400831291
:1006580003135F0883178000840A60088000840AF7
:1006680061088000840A6208800083160313310839
:10067800013EB1000730B1050030CD000030CC009C
:100688000030CB000030CA00D6015608C000013047
:100698000310C00DFF3E031D4C2B0310400DB03E50
:1006A80084000008CA07840A00080318000F5D2B9D
:1006B8005E2BCB07840A00080318000F642B652BF8
:1006C800CC07840A00080318000F6B2B6C2BCD078E
:1006D8000130D60708305602031C732B742B492BA4
:1006E8004A08C0004B08C1004C08C2004D08C300AE
:1006F80003300310C30CC20CC10CC00CFF3E031D19
:100708007D2B4308C7004208C6004108C5004008C1
:10071800C400831203135F0883160313C0008312F7
:100728000313600883160313C100831203136108BF
:1007380083160313C200831203136208831603137C
:10074800C3004408C0024508031C450FAC2BAD2B61
:10075800C1024608031C460FB22BB32BC20247083E
:10076800031C470FB82BB92BC3024308D10042081A
:10077800D0004108CF004008CE00D11BD32B510830
:10078800031DD42B5008031DD42B4F08031DD42B55
:1007980065304E02031DD02B031CD32BD42B3C2CCD
:1007A800831603133008031DDA2BDB2B3C2C013096
:1007B800B0000A128A15D4210A128A117508831604
:1007C8000313D3007408D2005A08031DEC2BED2B39
:1007D800352C2E085202D4002F08031C2F0A53026E
:1007E800D500013055022D3003195402031CFD2B8E
:1007F800FE2B352C07305502D0300319540203184C
:10080800062C072C352C550883120313A1008316D8
:100818000313540883120313A0006030A200EA30C7
:10082800A3000A128A1504250A128A1183120313D7
:10083800210883160313C9008312031320088316A3
:100848000313C800490883120313D0008316031347
:10085800480883120313CF000A128A1103260A12CA
:100868008A11831603135308AF005208AE00DA0149
:1008780083160313D11B512C5108031D502C50080B
:10088800031D502C4F08031D502C32304E02031DFF
:100898004D2C0318502C512C542C83160313B001E3
:1008A80008000A128A15F0210A128A11AE300A12BB
:1008B8008A1526220A128A1107300A128A15262258
:1008C8000A128A110A128A150A220A128A11AF30EC
:1008D8000A128A1526220A128A1183120313B801F2
:1008E8003808323E840005303802031C7C2C7E2CEC
:1008F80001307F2C00300A128A1598230A128A11B7
:1009080083138000013083120313B80706303802BE
:10091800031C8F2C902C742C0A128A15FD210A12A4
:100928008A11FF3083120313A200FF30A3000330A3
:10093800A4000030A5003408A600A701A801A90159
:100948003308AA00AB01AC01AD0108300310AA0DB1
:10095800AB0DAC0DAD0DFF3E031DAA2C3208AE0049
:10096800AF01B001B10110300310AE0DAF0DB00DE5
:10097800B10DFF3E031DB82C2E08AA042F08AB04A6
:100988003008AC043108AD042A08A6042B08A704D3
:100998002C08A8042D08A9042608A2052708A305E1
:1009A8002808A4052908A50520088400220883171B
:1009B8008000840A23088000840A24088000840AAE
:1009C80025088000FF30A200FF30A3000330A400F8
:1009D8000030A5003708A600A701A801A90136081C
:1009E800AA00AB01AC01AD0108300310AA0DAB0D94
:1009F800AC0DAD0DFF3E031DF92C3508AE00AF015F
:100A0800B001B10110300310AE0DAF0DB00DB10D36
:100A1800FF3E031D072D2E08AA042F08AB0430083B
:100A2800AC043108AD042A08A6042B08A7042C0836
:100A3800A8042D08A9042608A2052708A305280844
:100A4800A4052908A5052108840022088000840A35
:100A580023088000840A24088000840A250880006E
:100A680008000A3083120313A0000030A1002908EF
:100A7800A3002808A2000A128A1565260A128A11FC
:100A8800831203132108B7002008B600A91B4D2DB7
:100A98004E2D622D0A30A0000030A1002908A300C5
:100AA8002808A2000A128A1548250A128A118312F8
:100AB80003132108B3002008B2007C2D0A30A000DF
:100AC8000030A1002908A3002808A2000A128A15EC
:100AD80048250A128A11831203132009AA00210942
:100AE800AB00AA0A0319AB0A2A08B2002B08B30004
:100AF80036083704031D812D822D892D30300A12C6
:100B08008A1523230A128A11ED2DB501B401B71FE6
:100B18008E2D8F2DC22D0130B400B609B709B60A43
:100B28000319B70AC22D35082C3E84000A30A000EC
:100B38000030A1003708A3003608A2000A128A155F
:100B480048250A128A11831203132008303E8313A2
:100B580080000130B5070A30A0000030A100370836
:100B6800A3003608A2000A128A1565260A128A11FD
:100B7800831203132108B7002008B600360837048B
:100B88000319C72DC82DCE2D05303502031CCD2DD8
:100B9800CE2D972D34080319D22DD32DE42D2D30C9
:100BA8000A128A1523230A128A11E42D35082C3ECD
:100BB8008400831300080A128A1523230A128A1153
:100BC800013083120313B502350A031DEC2DED2DF8
:100BD800DA2D2E300A128A1523230A128A1183125B
:100BE80003133208303E0A128A1523230A128A1187
:100BF80043300A128A1523230A128A110800831225
:100C080003136C08D1005107A03E84004F088313DA
:100C18008000840A500880006C08013EEC00033014
:100C2800EC05DA01DB01DC015C08D1005107A03ECC
:100C380084000008D200840A0008D3005208DA07AA
:100C48000318DB0A5308DB070130DC0704305C02B9
:100C5800031C2F2E302E182E5B08D2005A08D10004
:100C68000310D20CD10C0310D20CD10C5108DD00AA
:100C78005208DE00013083160313B70700308312D1
:100C880003135E02623003195D02031C4C2E4D2EC5
:100C9800512E5330DD000030DE000330831603137D
:100CA8003702031C582E592EC82E00308312031306
:100CB8005E023D3003195D02031C632E642EC12EB3
:100CC80000305E025F3003195D0203186C2E6D2E32
:100CD800C12EED016230F5000A128A1583220A122C
:100CE8008A1183120313A401A40A02300A128A1576
:100CF800E9230A128A11583083120313A3008030A3
:100D0800A4000A128A1570230A128A115430831219
:100D18000313BE006B30BF005E08C1005D08C00051
:100D28000A128A1500230A128A11543083120313F7
:100D3800A3000030A4000A128A1570230A128A112F
:100D480083120313ED01153083120313D3004B30C4
:100D5800D200BD30D100D10BAF2ED20BAF2ED30BAA
:100D6800AF2EB62E83120313ED0101308316031341
:100D7800B500DC010130B300C82E5C30F5000A1262
:100D88008A1583220A128A110800831203132F0876
:100D980084008313000884000A128A150A200A12A4
:100DA8008A11253A031DD92EDA2E742F2F088400B4
:100DB80001308007E701E8010030EB00FF30E9006F
:100DC800FF30EA002F0884000008B70037088400C5
:100DD8000A128A150A200A128A11753A031DF52E7D
:100DE800F62E6C2F300884000008FF0002308007C0
:100DF8007F0884000008B300840A0008B4002F08A4
:100E080084003708013E8000612F2030B80001308F
:100E1800B8023808903E84000A30A0000030A100D3
:100E28003408A3003308A2000A128A154C240A12B7
:100E38008A11831203132008303E831780000A307A
:100E4800A0000030A1003408A3003308A2000A1251
:100E58008A1504250A128A11831203132108B40083
:100E68002008B3003308340403193B2F3C2F5A2FB2
:100E78003808031D402F412F0B2F5A2F3808903E5A
:100E8800840083170008B100B2013108A0003208BD
:100E9800A1002D08A2002E08A3000A128A156027B7
:100EA8000A128A11013083120313B807203038065A
:100EB800031D5F2F602F422F8D2F370884000A12E1
:100EC8008A150A200A128A11753A0319092F6C2FFC
:100ED800831203132F0884000130831380078D2F9A
:100EE8002F088400000884000A128A150A200A12B2
:100EF8008A11B100B2013108A0003208A1002D0802
:100F0800A2002E08A3000A128A1560270A128A1165
:100F18006C2F0800003083120313AB000030AA00C6
:100F28000030A9000030A8000030AF000030AE004B
:100F38000030AD000030AC00B00130082607A70033
:100F48002708840083130008FF003008283E840027
:100F58007F0880000130B00703303002031CB52F32
:100F6800B62FA12FAB01B00130082607A70027082C
:100F7800033E84000008FF0030082C3E84007F08F0
:100F880080000130B00703303002031CCC2FCD2F76
:100F9800B82FAF010A128A1546220A128A11831243
:100FA8000313A401A40A01300A128A15E9230A12BC
:100FB8008A11493083120313A3008030A4000A1257
:100FC8008A1570230A128A112C3083120313A30086
:100FD8000030A4000A128A1570230A128A11080028
:100FE800F400831203130C1EFA2FFB2FF52F74083D
:100FF8009900080008340800FF1B0A2883137F188B
:1010080083170008840A0319FF0A080008308A00B9
:101018000408840A8207003457346134693474340C
:1010280069346E346734203452345034693420348F
:1010380044346134743461342034203400345034FE
:101048006C346134633465342034463469346E3426
:101058006734653472342034203420340034443406
:1010680072346934763465347234203450347234CE
:101078006534733465346E34743400342034203469
:101088002034503472346534733465346E347434B7
:10109800003444347234693476346534723420341C
:1010A8004E346F3474340034533465346E347334CE
:1010B8006F34723442343D340034543465346D3402
:1010C80070343A340034483442343A3400344834C2
:1010D800303400345034303400344834313400343F
:1010E80050343134003452343134003425347534BA
:0210F8000034C2
:1013A200013401340134831603132D08F5002C088F
:1013B200F400080064008001840A04060319003462
:1013C2000406DC298316031311081F39031DEA29B9
:1013D200EB29E3291419EE29EF29E32908000A125F
:1013E2008A15E3210A128A158316031311141118A0
:1013F200FB29FC29F82908000A128A15E3210A129E
:101402008A158316031311151119082A092A052AA8
:1014120008000A128A15E3210A128A158316031399
:1014220091149118152A162A122A08002F308316B1
:10143200031788001E3089008030831603139F0033
:101442000130831203139F000800F4000A128A1568
:10145200E3210A128A1574088312031393008C1D68
:10146200332A342A302A8C11080083160313871575
:101472000716283083120313940080308316031357
:101482009400133093009101080001300A128A156A
:10149200C0230A128A15063083120313A5002F30C7
:1014A200A400A40B522AA50B522A572A08000C307A
:1014B2008316031399001811181298168312031336
:1014C200981718161813831603138C160B178B17FD
:1014D2000800F5000A128A15F0210A128A15770807
:1014E2000A128A1526220A128A15750808380A1263
:1014F2008A1526220A128A150A128A15FD210A1253
:101502008A150800922A750884000A128A150A2090
:101512000A128A150A128A11F4270A128A15013050
:10152200F507750884000A128A150A200A128A151C
:10153200003A031D9D2A9E2A842A0800F6000A12F8
:101542008A15F0210A128A15AE300A128A1526224D
:101552000A128A1576080A128A1526220A128A1592
:1015620075080A128A1526220A128A150A128A1583
:10157200FD210A128A15080083120313A0007808BD
:10158200A004200804380A128A156A220A128A154F
:101592004230F600F60BCB2A000083120313200818
:1015A200FB390A128A156A220A128A154230F6009B
:1015B200F60BD92A00000800831203133B08BD0072
:1015C200EF2A3908AD003A08AE003D30AF003C08C2
:1015D200B0000A128A11C9260A128A15831203134D
:1015E2003D0884000A128A150A200A128A15003A56
:1015F200031DFC2AFD2AE22AB901BA010800403083
:1016020083120313C3003E08C4000030C500C601A4
:10161200C701CD01CE014430B9000030BA003F0805
:10162200BB004330BC000A128A15DD220A128A1559
:101632008312031346083E07C20042088400831344
:101642008001080083120313A2000130F80022086F
:10165200F0390A128A15BD220A128A15831203135F
:101662002208A10003300310A10DFF3E031D342BFD
:101672000310210DF0390A128A15BD220A128A15A9
:10168200413083120313A100A10B452B482B080004
:10169200F401F50183120313201C502B512B572BFD
:1016A2002208F4070318F50A2308F507013003108E
:1016B200A20DA30DFF3E031D582B01300310A10CF8
:1016C200A00CFF3E031D5F2B20082104031D6A2B83
:1016D2006B2B4B2B7508A1007408A0000800872B08
:1016E2002408FF00230884000A128A1500200A1227
:1016F2008A150A128A1523230A128A1501308312C7
:101702000313A3070318A40A0030A40783120313C8
:101712002408FF00230884000A128A1500200A12F6
:101722008A15003A031D962B972B712B0800F400A3
:101732000A128A15E3210A128A15831603139115D8
:10174200141CA42BA52BA12B831203131308F50041
:101752000A128A15E3210A128A1574080319B22B98
:10176200B62B831603139116B92B8316031391120A
:101772001116111ABD2BBE2BBA2B75080800831245
:101782000313A300F8012308F0390A128A15BD22B7
:101792000A128A15831203132308A10003300310CF
:1017A200A10DFF3E031DD02B0310210DF0390A12AB
:1017B2008A15BD220A128A15063083120313A2006B
:1017C2002F30A100A10BE32BA20BE32BE82B080087
:1017D20083120313A5000D2C2408BF3E0A128A159A
:1017E200C0230A128A15182C2408933E0A128A155D
:1017F200C0230A128A15182C2408D33E0A128A150D
:10180200C0230A128A15182C24087F3E0A128A1550
:10181200C0230A128A15182C2508023A0319ED2B47
:10182200013A0319F52B073A0319FD2B052C080081
:1018320083120313A0000A128A15F0210A128A15D4
:10184200AE300A128A1526220A128A15831203134F
:1018520020080A128A1526220A128A150A128A15E5
:101862000A220A128A15AF300A128A1526220A1291
:101872008A1500300A128A1598230A128A158312D1
:101882000313A1000A128A15FD210A128A15831276
:1018920003132108080083120313200821040319EB
:1018A200532C542C812C0130F400602C0130031095
:1018B200A00DA10DFF3E031D582C0130F407A11FFE
:1018C200632C642C572C21082302031D6A2C200848
:1018D2002202031C6D2C6E2C742C2008A2022108FB
:1018E200031CA303A30201300310A10CA00CFF3EB2
:1018F200031D752C0130F402031D802C812C642CF5
:101902002308A1002208A0000800831203138C1EE2
:101912008B2C8C2CBB2C1A08F30083160313320871
:10192200031D942C952CB92C0A30730603199A2C9A
:101932009B2CA32C0730831203136D02031CA22CD1
:10194200A32CB12C83126D08B83E8400831380014E
:10195200013083160313B20083120313ED01B92C75
:101962006D08B83E84007308831380000130ED07D0
:1019720083128C1272088A0071088400700E830030
:10198200FE0E7E0E090083120313A1002118CA2C39
:10199200CE2C831203139F16D12C831203139F1292
:1019A2007418D42CD82C831203131F16DB2C831229
:1019B20003131F127518DE2CE22C831203139F15DA
:1019C200E52C831203139F117618E82CEC2C83125A
:1019D20003131F15EF2C831203131F110F308312F1
:1019E2000313A000A00BF32CF62C831203139F14F5
:1019F2009F18FC2CFD2CF92C1E08F50083160313EE
:101A02001E08F4000800F501F601831203132008F2
:101A1200210403190D2D0E2D432D0130F4001A2D32
:101A220001300310A00DA10DFF3E031D122D013048
:101A3200F407A11F1D2D1E2D112D01300310F50DD0
:101A4200F60DFF3E031D1F2D21082302031D2B2D22
:101A520020082202031C2E2D2F2D362D2008A20233
:101A62002108031CA303A302751401300310A10C67
:101A7200A00CFF3E031D372D0130F402031D422D41
:101A8200432D1E2D7608A1007508A0000800F5015F
:101A920083120313A31F4E2D4F2D562DA209A30906
:101AA200A20A0319A30A0130F500A11F592D5A2DCC
:101AB2005F2DA009A109A00A0319A10A2008210487
:101AC2000319642D652D922D0130F400712D013022
:101AD2000310A00DA10DFF3E031D692D0130F40777
:101AE200A11F742D752D682D21082302031D7B2D46
:101AF20020082202031C7E2D7F2D852D2008A202A4
:101B02002108031CA303A30201300310A10CA00CA3
:101B1200FF3E031D862D0130F402031D912D922DEF
:101B2200752D75080319962D972D9C2DA209A309D1
:101B3200A20A0319A30A2308A1002208A000080090
:101B42004030F50009300A128A159F220A128A15BE
:101B5200023083120313A2000430A100B930A000A6
:101B6200A00BB12DA10BB12DA20BB12DB82DF501FA
:101B720008300A128A159F220A128A15F5010230CC
:101B82000A128A159F220A128A15F50103300A12D7
:101B92008A159F220A128A150330F50009300A12AB
:101BA2008A159F220A128A152F30F5000A300A126E
:101BB2008A159F220A128A151F30F5000C300A126C
:101BC2008A159F220A128A151F30F5000D300A125B
:101BD2008A159F220A128A15F50104300A128A1503
:101BE2009F220A128A15F50105300A128A159F22D0
:101BF2000A128A15F50106300A128A159F220A1264
:101C02008A150800F501F50A21300A128A159F2269
:101C12000A128A15823083120313A700DD30A60050
:101C2200A60B112EA70B112E1F300A128A1519248A
:101C32000A128A1583120313AC0020300A128A1585
:101C420019240A128A1583120313AD000F30AD0551
:101C52002D08A600A7012608A0002708A1000A3027
:101C6200A2000030A3000A128A1549230A128A151B
:101C7200831203132008083EA80021080318013E1E
:101C8200003EA900280E0F39AA00290EF039AA0435
:101C9200290E0F39AB002C08A000A101A01BA10343
:101CA2000A30A2000030A3000A128A1549230A1240
:101CB2008A15831203132A082007A4002B0803188D
:101CC2002B0A2107A500080083120313A501A11FF7
:101CD2006B2E6C2E732EA009A109A00A0319A10A6A
:101CE2000130A500A31F762E772E7E2EA209A3090E
:101CF200A20A0319A30A0130A506A601A70120081A
:101D020021040319852E862EBB2E0130A400922EAB
:101D120001300310A00DA10DFF3E031D8A2E0130DC
:101D2200A407A11F952E962E892E01300310A60D11
:101D3200A70DFF3E031D972E21082302031DA32E8C
:101D420020082202031CA62EA72EAE2E2008A202D5
:101D52002108031CA303A302261401300310A10CC3
:101D6200A00CFF3E031DAF2E0130A402031DBA2EAC
:101D7200BB2E962E25080319BF2EC02EC52EA609EE
:101D8200A709A60A0319A70A2708A1002608A00086
:101D9200080083120313A6002608F70000300A1277
:101DA2008A156A220A128A15823083120313A50049
:101DB200DD30A400A40BDB2EA50BDB2E03300A12B0
:101DC2008A15C0230A128A150D3083120313A50047
:101DD200FB30A400A40BEB2EA50BEB2E03300A1252
:101DE2008A15C0230A128A150D3083120313A50027
:101DF200FB30A400A40BFB2EA50BFB2E03300A1212
:101E02008A15C0230A128A150D3083120313A50006
:101E1200FB30A400A40B0B2FA50B0B2F02300A12D0
:101E22008A15C0230A128A150D3083120313A500E6
:101E3200FB30A400A40B1B2FA50B1B2F28300A126A
:101E42008A15C0230A128A150D3083120313A500C6
:101E5200FB30A400A40B2B2FA50B2B2F0C300A1246
:101E62008A15C0230A128A150D3083120313A500A6
:101E7200FB30A400A40B3B2FA50B3B2F01300A1211
:101E82008A15C0230A128A150D3083120313A50086
:101E9200FB30A400A40B4B2FA50B4B2F06300A12CC
:101EA2008A15C0230A128A150D3083120313A50066
:101EB200FB30A400A40B5B2FA50B5B2F0800831241
:101EC2000313220823040319672F682F6E2F220899
:101ED2002304031D6D2F6E2F752F20080A128A11FD
:101EE200FF270A128A15FF2F2208093EA4002308A1
:101EF2000318013E003EA500240884008317251C18
:101F020083130008A600840A0008A70026082704F5
:101F120003198C2F8D2FBF2F2208093EA4002308FE
:101F22000318013E003EA500240884008317251CE7
:101F320083130008A600840A0008A7002208023EB4
:101F4200A80023080318013E003EA90028088400C7
:101F52008317291C83130008AA00840A0008AB0017
:101F62002B08803AAC002708803A2C02031DBB2FB5
:101F720026082A020318BE2FBF2FFF2F8312031336
:101F8200220884008317231C83130008A400840AF8
:101F92000008A5002208023EA60023080318013EFD
:101FA200003EA700260884008317271C831300081D
:101FB2002407A9002508A8000318A80A801FE22FF9
:101FC200A803831203132808AA0029088400831790
:101FD2002A1C8313200880002208023EA400230842
:101FE2000318013E003EA500240884008317251C27
:0E1FF200831301308007840A0318800A080058
:02400E00E223AB
:00000001FF
